{
  "_format": "hh-sol-artifact-1",
  "contractName": "Attestify",
  "sourceName": "contracts/Attestify.sol",
  "abi": [
    {
      "inputs": [],
      "stateMutability": "nonpayable",
      "type": "constructor"
    },
    {
      "inputs": [
        {
          "internalType": "address",
          "name": "sender",
          "type": "address"
        },
        {
          "internalType": "uint256",
          "name": "tokenId",
          "type": "uint256"
        },
        {
          "internalType": "address",
          "name": "owner",
          "type": "address"
        }
      ],
      "name": "ERC721IncorrectOwner",
      "type": "error"
    },
    {
      "inputs": [
        {
          "internalType": "address",
          "name": "operator",
          "type": "address"
        },
        {
          "internalType": "uint256",
          "name": "tokenId",
          "type": "uint256"
        }
      ],
      "name": "ERC721InsufficientApproval",
      "type": "error"
    },
    {
      "inputs": [
        {
          "internalType": "address",
          "name": "approver",
          "type": "address"
        }
      ],
      "name": "ERC721InvalidApprover",
      "type": "error"
    },
    {
      "inputs": [
        {
          "internalType": "address",
          "name": "operator",
          "type": "address"
        }
      ],
      "name": "ERC721InvalidOperator",
      "type": "error"
    },
    {
      "inputs": [
        {
          "internalType": "address",
          "name": "owner",
          "type": "address"
        }
      ],
      "name": "ERC721InvalidOwner",
      "type": "error"
    },
    {
      "inputs": [
        {
          "internalType": "address",
          "name": "receiver",
          "type": "address"
        }
      ],
      "name": "ERC721InvalidReceiver",
      "type": "error"
    },
    {
      "inputs": [
        {
          "internalType": "address",
          "name": "sender",
          "type": "address"
        }
      ],
      "name": "ERC721InvalidSender",
      "type": "error"
    },
    {
      "inputs": [
        {
          "internalType": "uint256",
          "name": "tokenId",
          "type": "uint256"
        }
      ],
      "name": "ERC721NonexistentToken",
      "type": "error"
    },
    {
      "inputs": [
        {
          "internalType": "address",
          "name": "owner",
          "type": "address"
        }
      ],
      "name": "OwnableInvalidOwner",
      "type": "error"
    },
    {
      "inputs": [
        {
          "internalType": "address",
          "name": "account",
          "type": "address"
        }
      ],
      "name": "OwnableUnauthorizedAccount",
      "type": "error"
    },
    {
      "inputs": [],
      "name": "ReentrancyGuardReentrantCall",
      "type": "error"
    },
    {
      "anonymous": false,
      "inputs": [
        {
          "indexed": true,
          "internalType": "address",
          "name": "owner",
          "type": "address"
        },
        {
          "indexed": true,
          "internalType": "address",
          "name": "approved",
          "type": "address"
        },
        {
          "indexed": true,
          "internalType": "uint256",
          "name": "tokenId",
          "type": "uint256"
        }
      ],
      "name": "Approval",
      "type": "event"
    },
    {
      "anonymous": false,
      "inputs": [
        {
          "indexed": true,
          "internalType": "address",
          "name": "owner",
          "type": "address"
        },
        {
          "indexed": true,
          "internalType": "address",
          "name": "operator",
          "type": "address"
        },
        {
          "indexed": false,
          "internalType": "bool",
          "name": "approved",
          "type": "bool"
        }
      ],
      "name": "ApprovalForAll",
      "type": "event"
    },
    {
      "anonymous": false,
      "inputs": [
        {
          "indexed": false,
          "internalType": "uint256",
          "name": "_fromTokenId",
          "type": "uint256"
        },
        {
          "indexed": false,
          "internalType": "uint256",
          "name": "_toTokenId",
          "type": "uint256"
        }
      ],
      "name": "BatchMetadataUpdate",
      "type": "event"
    },
    {
      "anonymous": false,
      "inputs": [
        {
          "indexed": true,
          "internalType": "string",
          "name": "studentId",
          "type": "string"
        },
        {
          "indexed": false,
          "internalType": "bytes32",
          "name": "certificateHash",
          "type": "bytes32"
        },
        {
          "indexed": false,
          "internalType": "string",
          "name": "ipfsCID",
          "type": "string"
        },
        {
          "indexed": false,
          "internalType": "uint256",
          "name": "timestamp",
          "type": "uint256"
        },
        {
          "indexed": true,
          "internalType": "address",
          "name": "issuer",
          "type": "address"
        }
      ],
      "name": "CredentialIssued",
      "type": "event"
    },
    {
      "anonymous": false,
      "inputs": [
        {
          "indexed": true,
          "internalType": "string",
          "name": "studentId",
          "type": "string"
        },
        {
          "indexed": false,
          "internalType": "uint256",
          "name": "timestamp",
          "type": "uint256"
        },
        {
          "indexed": true,
          "internalType": "address",
          "name": "revokedBy",
          "type": "address"
        }
      ],
      "name": "CredentialRevoked",
      "type": "event"
    },
    {
      "anonymous": false,
      "inputs": [
        {
          "indexed": true,
          "internalType": "address",
          "name": "issuer",
          "type": "address"
        },
        {
          "indexed": false,
          "internalType": "uint256",
          "name": "timestamp",
          "type": "uint256"
        }
      ],
      "name": "IssuerAuthorized",
      "type": "event"
    },
    {
      "anonymous": false,
      "inputs": [
        {
          "indexed": true,
          "internalType": "address",
          "name": "issuer",
          "type": "address"
        },
        {
          "indexed": false,
          "internalType": "uint256",
          "name": "timestamp",
          "type": "uint256"
        }
      ],
      "name": "IssuerRevoked",
      "type": "event"
    },
    {
      "anonymous": false,
      "inputs": [
        {
          "indexed": false,
          "internalType": "uint256",
          "name": "_tokenId",
          "type": "uint256"
        }
      ],
      "name": "MetadataUpdate",
      "type": "event"
    },
    {
      "anonymous": false,
      "inputs": [
        {
          "indexed": true,
          "internalType": "address",
          "name": "previousOwner",
          "type": "address"
        },
        {
          "indexed": true,
          "internalType": "address",
          "name": "newOwner",
          "type": "address"
        }
      ],
      "name": "OwnershipTransferred",
      "type": "event"
    },
    {
      "anonymous": false,
      "inputs": [
        {
          "indexed": true,
          "internalType": "address",
          "name": "to",
          "type": "address"
        },
        {
          "indexed": true,
          "internalType": "uint256",
          "name": "tokenId",
          "type": "uint256"
        },
        {
          "indexed": false,
          "internalType": "string",
          "name": "uri",
          "type": "string"
        }
      ],
      "name": "SoulboundMinted",
      "type": "event"
    },
    {
      "anonymous": false,
      "inputs": [
        {
          "indexed": true,
          "internalType": "uint256",
          "name": "tokenId",
          "type": "uint256"
        }
      ],
      "name": "SoulboundRevoked",
      "type": "event"
    },
    {
      "anonymous": false,
      "inputs": [
        {
          "indexed": true,
          "internalType": "address",
          "name": "from",
          "type": "address"
        },
        {
          "indexed": true,
          "internalType": "address",
          "name": "to",
          "type": "address"
        },
        {
          "indexed": true,
          "internalType": "uint256",
          "name": "tokenId",
          "type": "uint256"
        }
      ],
      "name": "Transfer",
      "type": "event"
    },
    {
      "inputs": [
        {
          "internalType": "address",
          "name": "to",
          "type": "address"
        },
        {
          "internalType": "uint256",
          "name": "tokenId",
          "type": "uint256"
        }
      ],
      "name": "approve",
      "outputs": [],
      "stateMutability": "nonpayable",
      "type": "function"
    },
    {
      "inputs": [
        {
          "internalType": "address",
          "name": "_issuer",
          "type": "address"
        }
      ],
      "name": "authorizeIssuer",
      "outputs": [],
      "stateMutability": "nonpayable",
      "type": "function"
    },
    {
      "inputs": [
        {
          "internalType": "address",
          "name": "",
          "type": "address"
        }
      ],
      "name": "authorizedIssuers",
      "outputs": [
        {
          "internalType": "bool",
          "name": "",
          "type": "bool"
        }
      ],
      "stateMutability": "view",
      "type": "function"
    },
    {
      "inputs": [
        {
          "internalType": "address",
          "name": "owner",
          "type": "address"
        }
      ],
      "name": "balanceOf",
      "outputs": [
        {
          "internalType": "uint256",
          "name": "",
          "type": "uint256"
        }
      ],
      "stateMutability": "view",
      "type": "function"
    },
    {
      "inputs": [
        {
          "internalType": "string",
          "name": "",
          "type": "string"
        }
      ],
      "name": "credentials",
      "outputs": [
        {
          "internalType": "string",
          "name": "studentId",
          "type": "string"
        },
        {
          "internalType": "bytes32",
          "name": "certificateHash",
          "type": "bytes32"
        },
        {
          "internalType": "string",
          "name": "ipfsCID",
          "type": "string"
        },
        {
          "internalType": "uint256",
          "name": "issuedAt",
          "type": "uint256"
        },
        {
          "internalType": "bool",
          "name": "isRevoked",
          "type": "bool"
        },
        {
          "internalType": "address",
          "name": "issuedBy",
          "type": "address"
        }
      ],
      "stateMutability": "view",
      "type": "function"
    },
    {
      "inputs": [
        {
          "internalType": "uint256",
          "name": "tokenId",
          "type": "uint256"
        }
      ],
      "name": "getApproved",
      "outputs": [
        {
          "internalType": "address",
          "name": "",
          "type": "address"
        }
      ],
      "stateMutability": "view",
      "type": "function"
    },
    {
      "inputs": [
        {
          "internalType": "string",
          "name": "_studentId",
          "type": "string"
        }
      ],
      "name": "getCredential",
      "outputs": [
        {
          "internalType": "bytes32",
          "name": "",
          "type": "bytes32"
        },
        {
          "internalType": "string",
          "name": "",
          "type": "string"
        },
        {
          "internalType": "uint256",
          "name": "",
          "type": "uint256"
        },
        {
          "internalType": "bool",
          "name": "",
          "type": "bool"
        }
      ],
      "stateMutability": "view",
      "type": "function"
    },
    {
      "inputs": [
        {
          "internalType": "string",
          "name": "_studentId",
          "type": "string"
        }
      ],
      "name": "getIssuer",
      "outputs": [
        {
          "internalType": "address",
          "name": "",
          "type": "address"
        }
      ],
      "stateMutability": "view",
      "type": "function"
    },
    {
      "inputs": [
        {
          "internalType": "address",
          "name": "owner",
          "type": "address"
        },
        {
          "internalType": "address",
          "name": "operator",
          "type": "address"
        }
      ],
      "name": "isApprovedForAll",
      "outputs": [
        {
          "internalType": "bool",
          "name": "",
          "type": "bool"
        }
      ],
      "stateMutability": "view",
      "type": "function"
    },
    {
      "inputs": [
        {
          "internalType": "address",
          "name": "_issuer",
          "type": "address"
        }
      ],
      "name": "isAuthorizedIssuer",
      "outputs": [
        {
          "internalType": "bool",
          "name": "",
          "type": "bool"
        }
      ],
      "stateMutability": "view",
      "type": "function"
    },
    {
      "inputs": [
        {
          "internalType": "string",
          "name": "",
          "type": "string"
        }
      ],
      "name": "isIssued",
      "outputs": [
        {
          "internalType": "bool",
          "name": "",
          "type": "bool"
        }
      ],
      "stateMutability": "view",
      "type": "function"
    },
    {
      "inputs": [
        {
          "internalType": "address",
          "name": "to",
          "type": "address"
        },
        {
          "internalType": "string",
          "name": "_studentId",
          "type": "string"
        },
        {
          "internalType": "bytes32",
          "name": "_certificateHash",
          "type": "bytes32"
        },
        {
          "internalType": "string",
          "name": "_ipfsCID",
          "type": "string"
        },
        {
          "internalType": "string",
          "name": "uri",
          "type": "string"
        }
      ],
      "name": "issueUnifiedCredential",
      "outputs": [
        {
          "internalType": "uint256",
          "name": "",
          "type": "uint256"
        }
      ],
      "stateMutability": "nonpayable",
      "type": "function"
    },
    {
      "inputs": [],
      "name": "name",
      "outputs": [
        {
          "internalType": "string",
          "name": "",
          "type": "string"
        }
      ],
      "stateMutability": "view",
      "type": "function"
    },
    {
      "inputs": [],
      "name": "owner",
      "outputs": [
        {
          "internalType": "address",
          "name": "",
          "type": "address"
        }
      ],
      "stateMutability": "view",
      "type": "function"
    },
    {
      "inputs": [
        {
          "internalType": "uint256",
          "name": "tokenId",
          "type": "uint256"
        }
      ],
      "name": "ownerOf",
      "outputs": [
        {
          "internalType": "address",
          "name": "",
          "type": "address"
        }
      ],
      "stateMutability": "view",
      "type": "function"
    },
    {
      "inputs": [],
      "name": "renounceOwnership",
      "outputs": [],
      "stateMutability": "nonpayable",
      "type": "function"
    },
    {
      "inputs": [
        {
          "internalType": "string",
          "name": "_studentId",
          "type": "string"
        }
      ],
      "name": "revokeCertificate",
      "outputs": [],
      "stateMutability": "nonpayable",
      "type": "function"
    },
    {
      "inputs": [
        {
          "internalType": "address",
          "name": "_issuer",
          "type": "address"
        }
      ],
      "name": "revokeIssuer",
      "outputs": [],
      "stateMutability": "nonpayable",
      "type": "function"
    },
    {
      "inputs": [
        {
          "internalType": "uint256",
          "name": "tokenId",
          "type": "uint256"
        }
      ],
      "name": "revokeToken",
      "outputs": [],
      "stateMutability": "nonpayable",
      "type": "function"
    },
    {
      "inputs": [
        {
          "internalType": "address",
          "name": "from",
          "type": "address"
        },
        {
          "internalType": "address",
          "name": "to",
          "type": "address"
        },
        {
          "internalType": "uint256",
          "name": "tokenId",
          "type": "uint256"
        }
      ],
      "name": "safeTransferFrom",
      "outputs": [],
      "stateMutability": "nonpayable",
      "type": "function"
    },
    {
      "inputs": [
        {
          "internalType": "address",
          "name": "from",
          "type": "address"
        },
        {
          "internalType": "address",
          "name": "to",
          "type": "address"
        },
        {
          "internalType": "uint256",
          "name": "tokenId",
          "type": "uint256"
        },
        {
          "internalType": "bytes",
          "name": "data",
          "type": "bytes"
        }
      ],
      "name": "safeTransferFrom",
      "outputs": [],
      "stateMutability": "nonpayable",
      "type": "function"
    },
    {
      "inputs": [
        {
          "internalType": "address",
          "name": "operator",
          "type": "address"
        },
        {
          "internalType": "bool",
          "name": "approved",
          "type": "bool"
        }
      ],
      "name": "setApprovalForAll",
      "outputs": [],
      "stateMutability": "nonpayable",
      "type": "function"
    },
    {
      "inputs": [
        {
          "internalType": "bytes4",
          "name": "interfaceId",
          "type": "bytes4"
        }
      ],
      "name": "supportsInterface",
      "outputs": [
        {
          "internalType": "bool",
          "name": "",
          "type": "bool"
        }
      ],
      "stateMutability": "view",
      "type": "function"
    },
    {
      "inputs": [],
      "name": "symbol",
      "outputs": [
        {
          "internalType": "string",
          "name": "",
          "type": "string"
        }
      ],
      "stateMutability": "view",
      "type": "function"
    },
    {
      "inputs": [
        {
          "internalType": "uint256",
          "name": "tokenId",
          "type": "uint256"
        }
      ],
      "name": "tokenURI",
      "outputs": [
        {
          "internalType": "string",
          "name": "",
          "type": "string"
        }
      ],
      "stateMutability": "view",
      "type": "function"
    },
    {
      "inputs": [
        {
          "internalType": "address",
          "name": "from",
          "type": "address"
        },
        {
          "internalType": "address",
          "name": "to",
          "type": "address"
        },
        {
          "internalType": "uint256",
          "name": "tokenId",
          "type": "uint256"
        }
      ],
      "name": "transferFrom",
      "outputs": [],
      "stateMutability": "nonpayable",
      "type": "function"
    },
    {
      "inputs": [
        {
          "internalType": "address",
          "name": "newOwner",
          "type": "address"
        }
      ],
      "name": "transferOwnership",
      "outputs": [],
      "stateMutability": "nonpayable",
      "type": "function"
    },
    {
      "inputs": [
        {
          "internalType": "string",
          "name": "_studentId",
          "type": "string"
        },
        {
          "internalType": "bytes32",
          "name": "_hash",
          "type": "bytes32"
        }
      ],
      "name": "verifyCredential",
      "outputs": [
        {
          "internalType": "bool",
          "name": "",
          "type": "bool"
        }
      ],
      "stateMutability": "view",
      "type": "function"
    }
  ],
  "bytecode": "0x60806040523480156200001157600080fd5b50336040518060400160405280601481526020017f4174746573746966792043726564656e7469616c000000000000000000000000815250604051806040016040528060068152602001651055151154d560d21b8152508160009081620000799190620001e4565b506001620000888282620001e4565b5050506001600160a01b038116620000ba57604051631e4fbdf760e01b81526000600482015260240160405180910390fd5b620000c581620000ed565b5060016008819055336000908152600c60205260409020805460ff19169091179055620002b0565b600780546001600160a01b038381166001600160a01b0319831681179093556040519116919082907f8be0079c531659141344cd1fd0a4f28419497f9722a3daafe3b4186f6b6457e090600090a35050565b634e487b7160e01b600052604160045260246000fd5b600181811c908216806200016a57607f821691505b6020821081036200018b57634e487b7160e01b600052602260045260246000fd5b50919050565b601f821115620001df57600081815260208120601f850160051c81016020861015620001ba5750805b601f850160051c820191505b81811015620001db57828155600101620001c6565b5050505b505050565b81516001600160401b038111156200020057620002006200013f565b620002188162000211845462000155565b8462000191565b602080601f831160018114620002505760008415620002375750858301515b600019600386901b1c1916600185901b178555620001db565b600085815260208120601f198616915b82811015620002815788860151825594840194600190910190840162000260565b5085821015620002a05787850151600019600388901b60f8161c191681555b5050505050600190811b01905550565b6123d480620002c06000396000f3fe608060405234801561001057600080fd5b50600436106101c35760003560e01c806380793ab8116100f9578063c02bce1211610097578063d091187f11610071578063d091187f146103fd578063e985e9c514610420578063f2fde38b14610433578063f731fa0f1461044657600080fd5b8063c02bce12146103c4578063c87b56dd146103d7578063c88b0be9146103ea57600080fd5b806395d89b41116100d357806395d89b4114610371578063a22cb46514610379578063b88d4fde1461038c578063bf4af9b11461039f57600080fd5b806380793ab81461031f5780638da5cb5b1461033257806393a242821461034357600080fd5b806331ba1966116101665780636352211e116101405780636352211e146102d057806370a08231146102e3578063715018a6146103045780637dc9e79b1461030c57600080fd5b806331ba19661461027e57806342842e0e146102aa578063436693d5146102bd57600080fd5b8063081812fc116101a2578063081812fc1461021a578063095ea7b314610245578063142e15421461025857806323b872dd1461026b57600080fd5b8062629679146101c857806301ffc9a7146101dd57806306fdde0314610205575b600080fd5b6101db6101d6366004611cb1565b610469565b005b6101f06101eb366004611ce2565b6104ce565b60405190151581526020015b60405180910390f35b61020d6104f9565b6040516101fc9190611d4f565b61022d610228366004611d62565b61058b565b6040516001600160a01b0390911681526020016101fc565b6101db610253366004611d7b565b6105b4565b6101db610266366004611e51565b6105c3565b6101db610279366004611e86565b610744565b6101f061028c366004611cb1565b6001600160a01b03166000908152600c602052604090205460ff1690565b6101db6102b8366004611e86565b6107cf565b6101db6102cb366004611cb1565b6107ef565b61022d6102de366004611d62565b61084c565b6102f66102f1366004611cb1565b610857565b6040519081526020016101fc565b6101db61089f565b6101db61031a366004611d62565b6108b3565b61022d61032d366004611e51565b61092e565b6007546001600160a01b031661022d565b6101f0610351366004611e51565b8051602081830181018051600b8252928201919093012091525460ff1681565b61020d6109ab565b6101db610387366004611ec2565b6109ba565b6101db61039a366004611efe565b6109c5565b6103b26103ad366004611e51565b6109dd565b6040516101fc96959493929190611f7a565b6101f06103d2366004611fcd565b610b39565b61020d6103e5366004611d62565b610d13565b6102f66103f8366004612012565b610e1c565b61041061040b366004611e51565b611088565b6040516101fc94939291906120b5565b6101f061042e3660046120e6565b611282565b6101db610441366004611cb1565b6112b0565b6101f0610454366004611cb1565b600c6020526000908152604090205460ff1681565b6104716112ee565b6001600160a01b0381166000818152600c602052604090819020805460ff19169055517fd61a75a28accb2f796aa5c5626b15e18e1009e1631fad70bf720fa07ebdd25a6906104c39042815260200190565b60405180910390a250565b60006001600160e01b03198216632483248360e11b14806104f357506104f38261131b565b92915050565b60606000805461050890612119565b80601f016020809104026020016040519081016040528092919081815260200182805461053490612119565b80156105815780601f1061055657610100808354040283529160200191610581565b820191906000526020600020905b81548152906001019060200180831161056457829003601f168201915b5050505050905090565b60006105968261136b565b506000828152600460205260409020546001600160a01b03166104f3565b6105bf8282336113a4565b5050565b336000908152600c602052604090205460ff16806105eb57506007546001600160a01b031633145b6106105760405162461bcd60e51b81526004016106079061214d565b60405180910390fd5b80600b816040516106219190612175565b9081526040519081900360200190205460ff166106505760405162461bcd60e51b815260040161060790612191565b6106586113b1565b600a826040516106689190612175565b9081526040519081900360200190206004015460ff16156106bd5760405162461bcd60e51b815260206004820152600f60248201526e105b1c9958591e481c995d9bdad959608a1b6044820152606401610607565b6001600a836040516106cf9190612175565b908152604051908190036020018120600401805492151560ff19909316929092179091553390610700908490612175565b604051908190038120428252907fd4c5d5aad974184af17cf15461fc872182d2c55a2e2788a6d9e2a9141fa33ab59060200160405180910390a36105bf6001600855565b6001600160a01b03821661076e57604051633250574960e11b815260006004820152602401610607565b600061077b8383336113db565b9050836001600160a01b0316816001600160a01b0316146107c9576040516364283d7b60e01b81526001600160a01b0380861660048301526024820184905282166044820152606401610607565b50505050565b6107ea838383604051806020016040528060008152506109c5565b505050565b6107f76112ee565b6001600160a01b0381166000818152600c602052604090819020805460ff19166001179055517fa0d402b55b358dfac53c7d1b3ef26f4e07d706ad2cab4e9540094020ee9a1d99906104c39042815260200190565b60006104f38261136b565b60006001600160a01b038216610883576040516322718ad960e21b815260006004820152602401610607565b506001600160a01b031660009081526003602052604090205490565b6108a76112ee565b6108b16000611462565b565b336000908152600c602052604090205460ff16806108db57506007546001600160a01b031633145b6108f75760405162461bcd60e51b81526004016106079061214d565b610900816114b4565b60405181907fac37e3ca0fe55e8c4c16104c999513fa4cab77a7530e834f23c86d1bb1d5214e90600090a250565b600081600b816040516109419190612175565b9081526040519081900360200190205460ff166109705760405162461bcd60e51b815260040161060790612191565b600a836040516109809190612175565b908152604051908190036020019020600401546001600160a01b036101009091041691505b50919050565b60606001805461050890612119565b6105bf3383836114ef565b6109d0848484610744565b6107c9338585858561158f565b8051602081830181018051600a82529282019190930120915280548190610a0390612119565b80601f0160208091040260200160405190810160405280929190818152602001828054610a2f90612119565b8015610a7c5780601f10610a5157610100808354040283529160200191610a7c565b820191906000526020600020905b815481529060010190602001808311610a5f57829003601f168201915b505050505090806001015490806002018054610a9790612119565b80601f0160208091040260200160405190810160405280929190818152602001828054610ac390612119565b8015610b105780601f10610ae557610100808354040283529160200191610b10565b820191906000526020600020905b815481529060010190602001808311610af357829003601f168201915b50505050600383015460049093015491929160ff8116915061010090046001600160a01b031686565b6000600b83604051610b4b9190612175565b9081526040519081900360200190205460ff16610b6a575060006104f3565b6000600a84604051610b7c9190612175565b90815260200160405180910390206040518060c0016040529081600082018054610ba590612119565b80601f0160208091040260200160405190810160405280929190818152602001828054610bd190612119565b8015610c1e5780601f10610bf357610100808354040283529160200191610c1e565b820191906000526020600020905b815481529060010190602001808311610c0157829003601f168201915b5050505050815260200160018201548152602001600282018054610c4190612119565b80601f0160208091040260200160405190810160405280929190818152602001828054610c6d90612119565b8015610cba5780601f10610c8f57610100808354040283529160200191610cba565b820191906000526020600020905b815481529060010190602001808311610c9d57829003601f168201915b5050509183525050600382015460208083019190915260049092015460ff81161515604083015261010090046001600160a01b031660609091015281015190915083148015610d0b57508060800151155b949350505050565b6060610d1e8261136b565b5060008281526006602052604081208054610d3890612119565b80601f0160208091040260200160405190810160405280929190818152602001828054610d6490612119565b8015610db15780601f10610d8657610100808354040283529160200191610db1565b820191906000526020600020905b815481529060010190602001808311610d9457829003601f168201915b505050505090506000610dcf60408051602081019091526000815290565b90508051600003610de1575092915050565b815115610e13578082604051602001610dfb9291906121bf565b60405160208183030381529060405292505050919050565b610d0b846116ba565b336000908152600c602052604081205460ff1680610e4457506007546001600160a01b031633145b610e605760405162461bcd60e51b81526004016106079061214d565b610e686113b1565b600b85604051610e789190612175565b9081526040519081900360200190205460ff1615610ec95760405162461bcd60e51b815260206004820152600e60248201526d105b1c9958591e481a5cdcdd595960921b6044820152606401610607565b83610f055760405162461bcd60e51b815260206004820152600c60248201526b092dcecc2d8d2c840d0c2e6d60a31b6044820152606401610607565b6009805460009182610f16836121ee565b919050559050610f2787828561172f565b6040805160c08101825287815260208101879052808201869052426060820152600060808201523360a08201529051600a90610f64908990612175565b90815260405190819003602001902081518190610f81908261225b565b506020820151600182015560408201516002820190610fa0908261225b565b506060820151600382015560808201516004909101805460a0909301516001600160a01b031661010002610100600160a81b0319921515929092166001600160a81b031990931692909217179055604051600190600b90611002908990612175565b908152604051908190036020018120805492151560ff19909316929092179091553390611030908890612175565b60405180910390207fda9b3f4c8ee0df9cb63c6252fdefb2fb3aef6d610f31d6dbe5ca84eb621b3b6987874260405161106b9392919061231b565b60405180910390a3905061107f6001600855565b95945050505050565b6000606060008084600b816040516110a09190612175565b9081526040519081900360200190205460ff166110cf5760405162461bcd60e51b815260040161060790612191565b6000600a876040516110e19190612175565b90815260200160405180910390206040518060c001604052908160008201805461110a90612119565b80601f016020809104026020016040519081016040528092919081815260200182805461113690612119565b80156111835780601f1061115857610100808354040283529160200191611183565b820191906000526020600020905b81548152906001019060200180831161116657829003601f168201915b50505050508152602001600182015481526020016002820180546111a690612119565b80601f01602080910402602001604051908101604052809291908181526020018280546111d290612119565b801561121f5780601f106111f45761010080835404028352916020019161121f565b820191906000526020600020905b81548152906001019060200180831161120257829003601f168201915b5050509183525050600382015460208083019190915260049092015460ff811615156040808401919091526101009091046001600160a01b0316606092830152918301519183015190830151608090930151919a90995091975095509350505050565b6001600160a01b03918216600090815260056020908152604080832093909416825291909152205460ff1690565b6112b86112ee565b6001600160a01b0381166112e257604051631e4fbdf760e01b815260006004820152602401610607565b6112eb81611462565b50565b6007546001600160a01b031633146108b15760405163118cdaa760e01b8152336004820152602401610607565b60006001600160e01b031982166380ac58cd60e01b148061134c57506001600160e01b03198216635b5e139f60e01b145b806104f357506301ffc9a760e01b6001600160e01b03198316146104f3565b6000818152600260205260408120546001600160a01b0316806104f357604051637e27328960e01b815260048101849052602401610607565b6107ea838383600161177d565b6002600854036113d457604051633ee5aeb560e01b815260040160405180910390fd5b6002600855565b6000828152600260205260408120546001600160a01b0316801580159061140a57506001600160a01b03851615155b156114575760405162461bcd60e51b815260206004820152601b60248201527f536f756c626f756e643a204e6f6e2d7472616e7366657261626c6500000000006044820152606401610607565b61107f858585611883565b600780546001600160a01b038381166001600160a01b0319831681179093556040519116919082907f8be0079c531659141344cd1fd0a4f28419497f9722a3daafe3b4186f6b6457e090600090a35050565b60006114c360008360006113db565b90506001600160a01b0381166105bf57604051637e27328960e01b815260048101839052602401610607565b6001600160a01b03821661152157604051630b61174360e31b81526001600160a01b0383166004820152602401610607565b6001600160a01b03838116600081815260056020908152604080832094871680845294825291829020805460ff191686151590811790915591519182527f17307eab39ab6107e8899845ad3d59bd9653f200f220920489ca2b5937696c3191015b60405180910390a3505050565b6001600160a01b0383163b156116b357604051630a85bd0160e11b81526001600160a01b0384169063150b7a02906115d1908890889087908790600401612344565b6020604051808303816000875af192505050801561160c575060408051601f3d908101601f1916820190925261160991810190612381565b60015b611675573d80801561163a576040519150601f19603f3d011682016040523d82523d6000602084013e61163f565b606091505b50805160000361166d57604051633250574960e11b81526001600160a01b0385166004820152602401610607565b805160208201fd5b6001600160e01b03198116630a85bd0160e11b146116b157604051633250574960e11b81526001600160a01b0385166004820152602401610607565b505b5050505050565b60606116c58261136b565b5060006116dd60408051602081019091526000815290565b905060008151116116fd5760405180602001604052806000815250611728565b806117078461197c565b6040516020016117189291906121bf565b6040516020818303038152906040525b9392505050565b6117398383611a0f565b6117438282611a29565b81836001600160a01b03167f4e5792094c9595db312a5e193fe75e8dd86c5384f7312542a5170d6679550b83836040516115829190611d4f565b808061179157506001600160a01b03821615155b156118535760006117a18461136b565b90506001600160a01b038316158015906117cd5750826001600160a01b0316816001600160a01b031614155b80156117e057506117de8184611282565b155b156118095760405163a9fbf51f60e01b81526001600160a01b0384166004820152602401610607565b81156118515783856001600160a01b0316826001600160a01b03167f8c5be1e5ebec7d5bd14f71427d1e84f3dd0314c0f7b2291e5b200ac8c7c3b92560405160405180910390a45b505b5050600090815260046020526040902080546001600160a01b0319166001600160a01b0392909216919091179055565b6000828152600260205260408120546001600160a01b03908116908316156118b0576118b0818486611a79565b6001600160a01b038116156118ee576118cd60008560008061177d565b6001600160a01b038116600090815260036020526040902080546000190190555b6001600160a01b0385161561191d576001600160a01b0385166000908152600360205260409020805460010190555b60008481526002602052604080822080546001600160a01b0319166001600160a01b0389811691821790925591518793918516917fddf252ad1be2c89b69c2b068fc378daa952ba7f163c4a11628f55a4df523b3ef91a4949350505050565b6060600061198983611add565b600101905060008167ffffffffffffffff8111156119a9576119a9611da5565b6040519080825280601f01601f1916602001820160405280156119d3576020820181803683370190505b5090508181016020015b600019016f181899199a1a9b1b9c1cb0b131b232b360811b600a86061a8153600a85049450846119dd57509392505050565b6105bf828260405180602001604052806000815250611bb5565b6000828152600660205260409020611a41828261225b565b506040518281527ff8e1a15aba9398e019f0b49df1a4fde98ee17ae345cb5f6b5e2c27f5033e8ce79060200160405180910390a15050565b611a84838383611bcd565b6107ea576001600160a01b038316611ab257604051637e27328960e01b815260048101829052602401610607565b60405163177e802f60e01b81526001600160a01b038316600482015260248101829052604401610607565b60008072184f03e93ff9f4daa797ed6e38ed64bf6a1f0160401b8310611b1c5772184f03e93ff9f4daa797ed6e38ed64bf6a1f0160401b830492506040015b6d04ee2d6d415b85acef81000000008310611b48576d04ee2d6d415b85acef8100000000830492506020015b662386f26fc100008310611b6657662386f26fc10000830492506010015b6305f5e1008310611b7e576305f5e100830492506008015b6127108310611b9257612710830492506004015b60648310611ba4576064830492506002015b600a83106104f35760010192915050565b611bbf8383611c30565b6107ea33600085858561158f565b60006001600160a01b03831615801590610d0b5750826001600160a01b0316846001600160a01b03161480611c075750611c078484611282565b80610d0b5750506000908152600460205260409020546001600160a01b03908116911614919050565b6001600160a01b038216611c5a57604051633250574960e11b815260006004820152602401610607565b6000611c68838360006113db565b90506001600160a01b038116156107ea576040516339e3563760e11b815260006004820152602401610607565b80356001600160a01b0381168114611cac57600080fd5b919050565b600060208284031215611cc357600080fd5b61172882611c95565b6001600160e01b0319811681146112eb57600080fd5b600060208284031215611cf457600080fd5b813561172881611ccc565b60005b83811015611d1a578181015183820152602001611d02565b50506000910152565b60008151808452611d3b816020860160208601611cff565b601f01601f19169290920160200192915050565b6020815260006117286020830184611d23565b600060208284031215611d7457600080fd5b5035919050565b60008060408385031215611d8e57600080fd5b611d9783611c95565b946020939093013593505050565b634e487b7160e01b600052604160045260246000fd5b600067ffffffffffffffff80841115611dd657611dd6611da5565b604051601f8501601f19908116603f01168101908282118183101715611dfe57611dfe611da5565b81604052809350858152868686011115611e1757600080fd5b858560208301376000602087830101525050509392505050565b600082601f830112611e4257600080fd5b61172883833560208501611dbb565b600060208284031215611e6357600080fd5b813567ffffffffffffffff811115611e7a57600080fd5b610d0b84828501611e31565b600080600060608486031215611e9b57600080fd5b611ea484611c95565b9250611eb260208501611c95565b9150604084013590509250925092565b60008060408385031215611ed557600080fd5b611ede83611c95565b915060208301358015158114611ef357600080fd5b809150509250929050565b60008060008060808587031215611f1457600080fd5b611f1d85611c95565b9350611f2b60208601611c95565b925060408501359150606085013567ffffffffffffffff811115611f4e57600080fd5b8501601f81018713611f5f57600080fd5b611f6e87823560208401611dbb565b91505092959194509250565b60c081526000611f8d60c0830189611d23565b8760208401528281036040840152611fa58188611d23565b6060840196909652505091151560808301526001600160a01b031660a0909101529392505050565b60008060408385031215611fe057600080fd5b823567ffffffffffffffff811115611ff757600080fd5b61200385828601611e31565b95602094909401359450505050565b600080600080600060a0868803121561202a57600080fd5b61203386611c95565b9450602086013567ffffffffffffffff8082111561205057600080fd5b61205c89838a01611e31565b955060408801359450606088013591508082111561207957600080fd5b61208589838a01611e31565b9350608088013591508082111561209b57600080fd5b506120a888828901611e31565b9150509295509295909350565b8481526080602082015260006120ce6080830186611d23565b60408301949094525090151560609091015292915050565b600080604083850312156120f957600080fd5b61210283611c95565b915061211060208401611c95565b90509250929050565b600181811c9082168061212d57607f821691505b6020821081036109a557634e487b7160e01b600052602260045260246000fd5b6020808252600e908201526d139bdd08185d5d1a1bdc9a5e995960921b604082015260600190565b60008251612187818460208701611cff565b9190910192915050565b60208082526014908201527310dc9959195b9d1a585b081b9bdd08199bdd5b9960621b604082015260600190565b600083516121d1818460208801611cff565b8351908301906121e5818360208801611cff565b01949350505050565b60006001820161220e57634e487b7160e01b600052601160045260246000fd5b5060010190565b601f8211156107ea57600081815260208120601f850160051c8101602086101561223c5750805b601f850160051c820191505b818110156116b157828155600101612248565b815167ffffffffffffffff81111561227557612275611da5565b612289816122838454612119565b84612215565b602080601f8311600181146122be57600084156122a65750858301515b600019600386901b1c1916600185901b1785556116b1565b600085815260208120601f198616915b828110156122ed578886015182559484019460019091019084016122ce565b508582101561230b5787850151600019600388901b60f8161c191681555b5050505050600190811b01905550565b8381526060602082015260006123346060830185611d23565b9050826040830152949350505050565b6001600160a01b038581168252841660208201526040810183905260806060820181905260009061237790830184611d23565b9695505050505050565b60006020828403121561239357600080fd5b815161172881611ccc56fea264697066735822122032d1be0024209fcdbd89abbbe0c69567fb30a1e9ff5d14103617881a1f4e88ba64736f6c63430008140033",
  "linkReferences": {},
  "deployedLinkReferences": {}
}